:100000000C9440040C945D040C945D040C945D0409
:100010000C945D040C945D040C945D040C945D04DC
:100020000C945D040C945D040C94241A0C94E01957
:100030000C94142A0C945D040C945D040C945D04DF
:100040000C945D040C945D040C945D040C945D04AC
:100050000C945D040C94FB1A0C945D040C945D04E8
:100060000C945D040C945D040C945D040C945D048C
:100070000C945D040C945D040C945D040C945D047C
:100080000C945D040C945D040C945D040C945D046C
:100090000C945D040C945D040C945D040C945D045C
:1000A0000C945D040C945D040C945D04000101014A
:1000B0000101010101010202020202020202020325
:1000C00003030303030303040404040404040505F5
:1000D00005050506060606060707070707080808B8
:1000E00008090909090A0A0A0B0B0B0C0C0C0D0D67
:1000F0000D0E0E0E0F0F0F101011111112121313FF
:100100001414151516161717181819191A1A1B1B77
:100110001C1D1D1E1E1F20202122222324242526D3
:1001200026272829292A2B2C2D2D2E2F303132320B
:10013000333435363738393A3B3C3D3E3F40414217
:10014000434445464748494A4C4D4E4F50515354FD
:10015000555658595A5B5D5E5F61626465666869B1
:100160006B6C6D6F7072737577787A7B7D7E808231
:10017000838587888A8C8E8F91939596989A9C9E7A
:10018000A0A2A3A5A7A9ABADAFB1B3B5B7BABCBE8A
:10019000C0C2C4C6C9CBCDCFD1D4D6D8DBDDDFE257
:1001A000E4E7E9EBEEF0F3F5F8FAFDFFFFAA7F557F
:1001B000402223252628292A2C2D2F30323335366C
:1001C000383A3B3D3E4042434547494A4C4E5051E8
:1001D000535557595A5C5E6062646668696B6D6F0F
:1001E00071737577797B7D7F81838587898A8C8E12
:1001F00090929496989A9C9E9FA1A3A5A7A8AAAC1A
:10020000AEAFB1B3B4B6B8B9BBBCBEBFC1C2C3C553
:10021000C6C7C9CACBCCCDCED0D1D2D2D3D4D5D6F5
:10022000D7D7D8D9D9DADADBDBDBDCDCDCDCDCDD28
:10023000DDDDDDDCDCDCDCDCDBDBDBDADAD9D9D80C
:10024000D7D7D6D5D4D3D2D2D1D0CECDCCCBCAC9A4
:10025000C7C6C5C3C2C1BFBEBCBBB9B8B6B4B3B1D3
:10026000AFAEACAAA8A7A5A3A19F9E9C9A9896946E
:1002700092908E8C8A89878583817F7D7B79777543
:1002800073716F6D6B6968666462605E5C5A595722
:10029000555351504E4C4A4947454342403E3D3BE1
:1002A0003A3836353332302F2D2C2A29282625236B
:1002B00022010029002B00E10000000000010014D1
:1002C0000004611D00210A010001001A0016001B34
:1002D00000E20001000100080007000600E3000141
:1002E0005101001500090019000351010001001718
:1002F000000A0005000000010001000100000001EB
:10030000000000095D010001000000010000000183
:100310000001001C000B001100000001000100188A
:10032000000D0010000251010001000C000E00360B
:100330000000002C00010000570157370014500145
:100340000001001300025703570100010001002AB9
:10035000002800045701000000010000002B0801E4
:1003600000010000000100350804081D080100011B
:100370000001001A0816081B080100010001001303
:100380000A0E08060101000100010015080908060F
:100390000801000100010017080F081908000001FA
:1003A0000001000100000001000000010001000147
:1003B00000000001000000010001002302250211DD
:1003C0000800000100010024020B012F00010001C0
:1003D00000010026020557300001002C080100270B
:1003E0000206572F020000010001000000075730ED
:1003F000020100010001002A082808210B01000069
:100400000001001B00000001000100000001001EAF
:10041000001E021E080100010001001F001F02183B
:100420000801000100010020002002120801000064
:10043000000100210021023502010001000100221B
:10044000002202350000000100010001000000014F
:100450000000000100010001000000010000000197
:100460000001002F084A00000000000100010018F0
:10047000085000500401000100010052005100002A
:100480000001000000010012084F004F04010000AD
:1004900000010030081C084D0001000100010000AF
:1004A000000000000001000000010000000000004A
:1004B0000001000000010000000000000001000138
:1004C00000010000002F08000000000100010000F2
:1004D00000000000000100010001000000300800E1
:1004E0000001000100010000000000000000000108
:1004F00000010001000000010000000100010001F6
:10050000000000010000000100010000004B004E4F
:1005100000000001000100240021001E002700014E
:10052000000100250022001F002E0001000100260E
:1005300000230020006300010001002D022D00387F
:1005400000010001000100000001000000010000A6
:1005500000010029002B08010010500000010001DB
:1005600000E10001000100010001001A08E3001B86
:10057000000100010001002A000608200201002CF1
:100580000001002B00190C280001000100010001EE
:100590000019082A08000001000100010000000104
:1005A0000000000100010001000000010000000146
:1005B00000010001002F08300800000100010024A4
:1005C0000021001E00270001000100250022001F5D
:1005D000000100010001002600230020005000015E
:1005E0000001000100010052005100010001002A39
:1005F00000010000004F00000032190A00047F3F94
:100600001F643214643214783C1E1E140A050A005A
:10061000000000000306B200080001000000A8006E
:10062000080002000200A0001400030057494E55C4
:10063000534200000000000000000000840004009D
:1006400007002A0044006500760069006300650029
:1006500049006E007400650072006600610063006E
:100660006500470055004900440073000000500039
:100670007B0039004400420037004600310046004C
:1006800044002D0037004500370041002D003400A4
:100690003000300038002D003900330036004200B1
:1006A0002D00360042004100360043003100390081
:1006B000410033003000380063007D00000000007E
:1006C0001B0301636F6E6669677572652E657267DD
:1006D0006F646F782D657A2E636F6D000501098058
:1006E000A101850319012AB700150126B70095015C
:1006F00075108100C0050C0901A101850419012AAA
:10070000A002150126A002950175108100C0050107
:100710000906A1018505050719E029E7150025014E
:100720009508750181020507190029EF15002501BB
:1007300095F07501810205081901290595057501D6
:100740009102950175039101C005010906A10105FA
:100750000719E029E7150025019508750181029523
:1007600001750881010507190029FF150026FF0002
:10077000950675088100050819012905950575017B
:100780009102950175039101C00902520003010015
:10079000A0FA090400000103010100092111010070
:1007A000012240000705810308000A090401000135
:1007B00003000000092111010001226D00070582DC
:1007C0000320000A0904020002FF0000000705835D
:1007D0000340000507050403400005120110020054
:1007E000000008973275490100010200012203450B
:1007F00000720067006F0044006F00780020004521
:10080000005A0020005300680069006E0065000077
:100810000030035A0053004100200054006500637B
:100820000068006E006F006C006F006700790020A8
:10083000004C00610062007300200049006E0063FC
:1008400000000004030904050F3900021C10050014
:10085000DF60DDD88945C74C9CD2659D9E648A9F28
:1008600000000306B20045001810050038B6083431
:10087000A909A0478BFDA0768815B6650001420046
:1008800011241FBECFEFDAE0DEBFCDBF24E0AEE320
:10089000B2E001C01D92A930B207E1F712E0A0E07A
:1008A000B1E0E6E9FBE502C005900D92AE33B10779
:1008B000D9F70E9467260C948A2D0C940000E8ED6D
:1008C000F0E080818E7F80831092E2001092DA0047
:1008D0001092E100A0EEB0E08C9181608C93808159
:1008E0008F77808319BCA7EDB0E08C918E7F8C93BD
:1008F00080818F7E80831092D30308952091E4003D
:100900003091E50095E6A9012091EC00822F8170DD
:1009100020FF06C08091E80080FF06C080E00895B7
:100920002091E80022FD1AC08091F803882389F005
:10093000853089F08091EB0085FD0FC02091E400A7
:100940003091E50042175307F9F29150E1F684E047
:10095000089582E0089583E0089581E00895EF927C
:10096000FF920F931F93CF937C018B010E947E0413
:10097000C82F882371F08C2FCF911F910F91FF907A
:10098000EF900895F70181917F018093F10001506C
:1009900011090115110579F38091E80085FDF2CF69
:1009A0008091E8008E778093E8000E947E0488237F
:1009B00081F3C82FE0CF8091FA0387FF13C08091A5
:1009C000E80082FF06C08091E8008B778093E80002
:1009D00004C08091F8038111F2CF08958091F8034B
:1009E0008823D9F38091E80080FFF8CF8091E80058
:1009F0008E77ECCF982F9093E900242F762F50E03C
:100A0000891731F07091EC002091ED005091F000C9
:100A100021FD07C09F5F973071F78093E90081E067
:100A200008953091EB003E7F3093EB003091ED0064
:100A30003D7F3093ED003091EB0031603093EB005F
:100A40007093EC002093ED005093F0002091EE00A5
:100A500027FDE0CF80E00895CF92DF92EF92FF92E2
:100A60000F931F93CF93DF93C8EDD0E088818F7EE3
:100A70008883E7EDF0E080818160808384E082BF3D
:100A800081E08093D30388818E7F888302EE10E01B
:100A9000F80110821092DA0081EEC82ED12CF601F6
:100AA000108288818F778883888180688883888195
:100AB0008F7D888319BC1092F8031092F90310926D
:100AC000F7031092F60390EEE92EF12CF7018081E6
:100AD0008B7F808388818160888342E060E080E052
:100AE0000E94FA04F60180818E7F8083F801808164
:100AF00081608083808188608083F70180818E7F20
:100B00008083888180618883DF91CF911F910F91CD
:100B1000FF90EF90DF90CF900895FC01809100044A
:100B20009091010486179707A0F06115710529F4CB
:100B30008091E8008E778093E80090E06115710560
:100B400051F4911108C08091E80082FF35C080E027
:100B50000895BC01F2CF8091F8038823C9F1853054
:100B6000C9F18091E80083FD31C08091E80082FDE9
:100B7000EACF8091E80080FFE1CF8091F3002091DF
:100B8000F200382F6115710519F02830310558F041
:100B900091E02830310509F090E08091E8008E77EF
:100BA0008093E800CBCF84918093F100319661501F
:100BB00071092F5F3F4FE6CF8091F803882341F002
:100BC000853041F08091E80083FFBDCF81E008953A
:100BD00082E0089583E00895FC01809100049091E3
:100BE000010486179707A0F06115710529F490910B
:100BF000E8009E779093E80090E06115710551F44C
:100C0000911108C08091E80082FF34C080E008950F
:100C1000BC01F2CF8091F8038823C1F18530C1F186
:100C20008091E80083FD30C08091E80082FDEACF2A
:100C30008091E80080FFE1CF8091F3002091F200E5
:100C4000382F6115710519F02830310558F091E001
:100C50002830310509F090E02091E8002E772093AC
:100C6000E800CBCF81918093F100615071092F5F33
:100C70003F4FE7CF8091F803882341F0853041F062
:100C80008091E80083FFBECF81E0089582E008955F
:100C900083E00895089508958091D50308952091E3
:100CA000F803243099F423E02093E90070E050E049
:100CB00040E00E94AF04882321F01092D1031092EB
:100CC000D2038091E8008E778093E80008959C011C
:100CD0004FB7F8948091810390918203A091830390
:100CE000B09184034FBF821B930B08952091D501CF
:100CF0002223C9F02091990327FF15C0E62FE6951E
:100D0000E695E695EE31D8F4E80FF92FF11D6770FE
:100D100021E030E001C0220F6A95EAF72095828138
:100D2000282322830895FC013296089621916213AC
:100D300003C0DF0111971C92E817F907B9F708956E
:100D40002091D5012223C1F02091990327FF14C0DF
:100D5000E62FE695E695E695EE31F8F4E80FF92FE3
:100D6000F11D677021E030E001C0220F6A95EAF7BB
:100D70008281822B82830895FC0132962FEF30E02E
:100D80004191641751F02F3F19F4411101C0232FF5
:100D90003F5F3630A9F72F3F09F40895820F911D68
:100DA00027FD9A95FC0162830895CF92DF92EF921E
:100DB000FF926C01EE24FF2420E0C114D104E10471
:100DC000F10419F0C701B60120E1C72ED82EE92E93
:100DD000FF24C114D104E104F10419F0285FC70114
:100DE000B6016B017C0154E0F694E794D794C79464
:100DF0005A95D1F7C114D104E104F10419F02C5F24
:100E0000C701B6016B017C0142E0F694E794D794E8
:100E1000C7944A95D1F7C114D104E104F10419F043
:100E20002E5FC701B6019695879577956795672BD5
:100E3000682B692B09F02F5F822FFF90EF90DF90D6
:100E4000CF90089580917C03811110927C030895C6
:100E5000809590917B03982390937B0308958091D4
:100E60007B0390917A03892B90917903892B80934E
:100E70003E0290917C039923A1F0892B80933E023E
:100E80008091D501882341F18091990387FF24C087
:100E90008EE1E0E4F2E090E0815000F591110E94D3
:100EA0002207E0919C03F0919D033097E1F080913F
:100EB000D501882359F08091990387FF07C080915D
:100EC0003E0280933F0285E080933E020280F381E0
:100ED000E02D8EE392E0099486E0DBCF219122237E
:100EE000D9F29F5FD9CF0895E92FEE0FE90FEE0FEA
:100EF0008E0F982F977086958695869525E0829F10
:100F0000F0011124EF5BFC4F50E040E080E02191C4
:100F100030E0092E02C0369527950A94E2F7217039
:100F20003327042E01C0220F0A94EAF7822B4F5F69
:100F30005F4F4530510559F70895E92FEE0FE90F3E
:100F4000EE0F8E0F982F977041E001C0440F9A95D5
:100F5000EAF786958695869595E0899FF00111249C
:100F6000EF5BFC4F30E020E070E05191DF01119722
:100F7000CB01022E02C0969587950A94E2F7817004
:100F800081958527842385278C932F5F3F4F2530BC
:100F9000310559F708958091400390910F039813FC
:100FA00001C008958F5F8770FACF882341F0809544
:100FB00090917A03892380937A030C942F070895E4
:100FC000882339F090917A03982B90937A030C94AC
:100FD0002F070895882321F00E9428070C942F07DB
:100FE0000895882339F090917B03982B90937B038D
:100FF0000C942F07089520910403309105032817BE
:10100000390771F09093050380930403E0919C03EA
:10101000F0919D03309721F00084F185E02D099433
:10102000089520910203309103032817390771F0C6
:101030009093030380930203E0919C03F0919D033E
:10104000309721F00680F781E02D099408951092E1
:101050007A03109279030E942F0790E080E00E94AB
:10106000110890E080E00C94FB0760937D0370937F
:101070007E0380937F03909380030C94270888233A
:1010800041F19CEF980F913A38F4682F8EE392E08B
:101090000E9476060C942F0790E2980F983050F437
:1010A000877091E001C0990F8A95EAF7892F0E9415
:1010B0002807F0CF9BE5980F933020F490E080E074
:1010C0000C941108885A873120F490E080E00C9449
:1010D000FB070895CF93C82F882309F467C08CEFCE
:1010E0008C0F813AC0F58091D501882311F1809150
:1010F000990387FF1EC0EC2FE695E695E695F0E094
:10110000E25CFD4F828190E04C2F477021E030E09F
:1011100002C0220F331F4A95E2F782239323892BC3
:1011200091F06C2F8EE392E00E9476060E942F07CA
:101130000AC0E0E4F2E086E492E02191C21789F36C
:101140008E179F07D1F76C2F8EE392E00E94A006C6
:10115000CF910C942F0780E28C0F883068F4C77011
:1011600021E030E001C0220FCA95EAF780917B03AD
:10117000822B80937B03ECCFEBE5EC0FE33040F464
:10118000F0E0E35FFD4F808190E0CF910C94110877
:10119000C85AC73158F4EC2FF0E0EE0FFF1FE05FA4
:1011A000FD4F80819181CF910C94FB07CF910895E1
:1011B000E0919C03F0919D03309721F00190F08124
:1011C000E02D099480E00895CF93DF93EC0181E056
:1011D000898B80917B039F81892B80937B038091F6
:1011E0007A039885892B80937A030E942F07EA81DE
:1011F000FB81309739F06C897D89CE010696DF91AD
:10120000CF910994DF91CF910895EF92FF920F93C0
:101210001F93CF93DF93EC018A85811139C0EB8056
:10122000FC8087E5F81A26E12E9DC0012F9D900DC8
:101230001124DC01A85EBE4F1496ED91FC91159728
:10124000309731F054966D917C91825E9E4F099556
:1012500086E18E9D80018F9D100D1124085E1E4F2A
:10126000F80187810E942807F8018085982F9095C2
:1012700080917A03892380937A030E942F07188232
:1012800019861B861E821D82109207031092060388
:10129000DF91CF911F910F91FF90EF900895FA0188
:1012A000811101C0FB0109948091B503982F9E7FA5
:1012B00029F4817082608093B50308958635E8F340
:1012C00081708465F8CFAF92BF92DF92EF92FF9268
:1012D0000F931F93CF93DF93082F162FE901E42F6D
:1012E000F0E0E455FF4F611111C0E4915E2F4E2FE5
:1012F0004983E8835A831B82DF91CF911F910F911D
:10130000FF90EF90DF90BF90AF900895E62EF12C04
:101310004491D42EE42FF0E026E0829FC0011124F6
:101320002FEF30E0B9010E940E2B802F90E0880F44
:10133000991F55E5569FD001579FB00D11248A1B68
:101340009B0B982F990F890F5901AE18BF08AE9EBD
:10135000D001AF9EB00DBE9EB00D11245B2F189F23
:1013600080011124012F11275901A01AB10AAE9E44
:101370008001AF9E100DBE9E100D11245901A81AB8
:10138000B108AE9CC001AF9C900DBE9C900D112485
:10139000892F9927281B390B2E9FC0012F9F900D55
:1013A0003E9F900D1124E92F62307105A1F050F499
:1013B0006115710509F49CCF6130710581F0EB2F47
:1013C000512F96CF6430710569F080F06630710559
:1013D00009F48ECFF4CFE42F4B2F592F89CFE42F70
:1013E000412F86CFEB2F542F492F82CF4B2F5D2DCE
:1013F000E12F7ECF9091990392FF06C0282F28718C
:101400002830F9F4877F846093FF06C0282F287165
:101410002831F1F4877E846120919A0320FF06C071
:10142000382F38713830D9F4877F816021FF06C0AA
:10143000282F28712831D1F4877E816194FD877E21
:101440000895282F24712430F9F68B7F8860DCCF33
:10145000282F2471243101F78B7E8861DDCF382F4E
:101460003171313019F78E7F8860E0CF282F2171DC
:10147000213121F78E7E8861E1CFCF93DF93972FC3
:1014800070E026E0929F600D711D1124FB0134E590
:10149000839FE00DF11D1124EE0FFF1FEF54FD4F50
:1014A000C591D491CE01C238D105B9F1E8F5C13367
:1014B000D10509F499C050F5C932D10509F48DC0A0
:1014C000CA32D10509F497C0C11542E5D40708F026
:1014D000B6C0C11521E5D20708F024C1C83ED10528
:1014E00008F09DC0C03ED10568F5C83AD10508F0A6
:1014F00089C0C53AD10508F0EDC0C130D10511F160
:10150000209709F443C02497E8F440C0C533D105BF
:1015100009F45CC0C933D105B9F620919903237051
:1015200089F080EE90E00EC0C33ED10591F168F4E1
:10153000C03ED105F9F0C23ED10531F620919903A4
:1015400022FD20C0DF91CF910895C63ED10561F103
:10155000C73ED10581F1C43ED10509F0B5CF209138
:101560009A0321FFEFCF8091990384FD0FC087EE8E
:1015700090E0E8CF2091990320FD01C130919A03BA
:1015800030FFE0CF83EE90E024FFDCCF90E080E0FE
:10159000D9CF2091990322FDF5C030919A0330FDF7
:1015A000C0CF24FFCFCFF2CF2091990323FFCACF22
:1015B00024FDECCFDCCF2091990323FDE6C03091D0
:1015C0009A0331FFEECF84EE90E0BCCF20919903D7
:1015D00025FFB8CF89E290E0B5CF2091990325FF90
:1015E000B1CF85E390E0AECF2091990326FFAACF3B
:1015F0008AE290E0A7CF2091990326FFA3CF81E351
:1016000090E0A0CFCF3BD10508F6C85AD0E0CC0F70
:10161000DD1FC05FDD4F88819981946493CFC11530
:1016200030E5D30708F062C0C11540E4D40708F0E4
:1016300059C0DA95C115DF4108F484CFA7CFC11591
:1016400036E5D30718F5C11545E5D40708F080C085
:10165000C11584E5D80708F076C09C2F969596951D
:10166000AE0143705527C115D34508F460C021E091
:1016700030E002C0220F331F4A95E2F740E2949F08
:10168000C0011124822B932B9A685CCFC1153AE5D7
:10169000D30778F4C11549E5D40708F063C0C11534
:1016A00088E5D80708F472CF9C2F8827806F906A4E
:1016B00049CFCE0190568115904208F067CF8D2F0B
:1016C0008F710E94FA0990E0982F882788279F71D0
:1016D0008C2B46C0C55AD0E0C35FDD4F888190E0B7
:1016E000906430CFCE019F70906A2CCF9E01E4E0D1
:1016F00036952795EA95E1F723708C2F8695869588
:10170000837030E2839FC0011124922BC37021E0CB
:1017100030E002C0220F331FCA95E2F7822B932BD1
:101720009C6810CF9C2F8827816F906A0BCF21E097
:1017300030E002C0220F331F4A95E2F740E2949F47
:10174000C0011124EBCF9C2F8827846F906AFACEBA
:101750008C2F0E94FA0990E0982F882788279F7184
:101760009062F0CE8C2F8F700E94FA0934E0D695EB
:10177000C7953A95E1F7CF709C2F9069E3CE89E346
:1017800090E0E0CE82EE90E0DDCE86EE90E0DACE24
:10179000BF92CF92DF92EF92FF920F931F93CF935E
:1017A000DF938C01C090CC03D090CD03E090CE03AA
:1017B000F090CF0380917D0390917E03A0917F03F1
:1017C000B0918003C82AD92AEA2AFB2ACFE1D0E0C7
:1017D000BC2ED701C6010C2E04C0B695A7959795CF
:1017E00087950A94D2F780FD0EC0219788F7B12C17
:1017F0008B2DDF91CF911F910F91FF90EF90DF9094
:10180000CF90BF900895B8018C2F0E943D0A019798
:1018100061F3EECFCF93DF93EC010E94C80BBE01C2
:10182000DF91CF910C943D0A0E940A0C292F2F7052
:1018300092959F7092509E3078F4E92FF0E0E45733
:10184000F24D0C94362B803F19F020F4883E20F4A2
:1018500081E00895843FE1F380E00895883EC0F37D
:10186000813FD1F7F5CF822F86958695869508958D
:101870009C013A9521153F4138F491FF03C082E065
:10188000FB01099480E0FCCF0895CF93DF93EC0136
:101890000E943F0865ED77E0CE01DF91CF910C9477
:1018A000380CCF93C82F60EE77E00E94380C8C2F55
:1018B000CF910C946A08CF93DF93EC010E94510CF6
:1018C000CE01DF91CF910C94450CCF93DF93EC01C7
:1018D0008881833061F481E392E00E945B0C81E3B4
:1018E00092E00E945B0C81E392E00E945B0C888195
:1018F000843030F081E392E0DF91CF910C945B0C67
:10190000DF91CF910895CF93DF93EC0188818330ED
:1019100061F48EE290E00E945B0C8EE290E00E9407
:101920005B0C8EE290E00E945B0C8881843030F08A
:101930008EE290E0DF91CF910C945B0CDF91CF9120
:101940000895CF93DF93EC018881833061F48DE2B9
:1019500090E00E945B0C8DE290E00E945B0C8DE2B7
:1019600090E00E945B0C8881843030F08DE290E042
:10197000DF91CF910C945B0CDF91CF910895CF93C1
:10198000DF93EC018881833061F484E390E00E946E
:101990005B0C84E390E00E945B0C84E390E00E9487
:1019A0005B0C8881843030F084E390E0DF91CF914C
:1019B0000C945B0CDF91CF910895CF93DF93EC01F2
:1019C0008881833061F488E390E00E945B0C88E3B7
:1019D00090E00E945B0C88E390E00E945B0C8881A1
:1019E000843030F088E390E0DF91CF910C945B0C71
:1019F000DF91CF910895CF93DF93EC0188818330FD
:101A000061F483E390E00E945B0C83E390E00E942A
:101A10005B0C83E390E00E945B0C8881843030F0A3
:101A200083E390E0DF91CF910C945B0CDF91CF9139
:101A30000895CF93DF93EC018881833061F48FE0C8
:101A400090E00E945B0C8FE090E00E945B0C8FE0C6
:101A500090E00E945B0C8881843030F08FE090E051
:101A6000DF91CF910C945B0CDF91CF910895CF93D0
:101A7000DF93EC018881833061F482E190E00E9481
:101A80005B0C82E190E00E945B0C82E190E00E949E
:101A90005B0C8881843030F082E190E0DF91CF915F
:101AA0000C945B0CDF91CF910895FC018081813013
:101AB00041F49185911114C09285992389F082E0B7
:101AC0000895823041F48185811107C0828581119A
:101AD00006C083E0089586E0089585E0089584E0D7
:101AE00008950E94550D80936E02823049F018F4DB
:101AF000813071F00895833039F0853061F00895B8
:101B000081E390E00C94510C81E392E00E94510C2F
:101B100081E392E0F7CF81E392E00E945B0CF8CF83
:101B20000E94550D80936C02823049F018F4813088
:101B300071F00895833039F0853061F008958EE2B8
:101B400092E00C94510C8EE290E00E94510C8EE2D7
:101B500090E0F7CF8EE290E00E945B0CF8CF0E94FD
:101B6000550D80936A02823049F018F4813071F08B
:101B70000895833039F0853061F008958DE292E068
:101B80000C94510C8DE290E00E94510C8DE290E09B
:101B9000F7CF8DE290E00E945B0CF8CF0E94550DCC
:101BA00080936802823049F018F4813071F0089512
:101BB000833039F0853061F0089584E392E00C942D
:101BC000510C84E390E00E94510C84E390E0F7CF45
:101BD00084E390E00E945B0CF8CF0E94550D809347
:101BE0006602823049F018F4813071F00895833034
:101BF00039F0853061F0089588E392E00C94510C3F
:101C000088E390E00E94510C88E390E0F7CF88E3EE
:101C100090E00E945B0CF8CF0E94550D8093640207
:101C2000823049F018F4813071F00895833039F032
:101C3000853061F0089583E392E00C94510C83E3C6
:101C400090E00E94510C83E390E0F7CF83E390E0B3
:101C50000E945B0CF8CF0E94550D80936202823087
:101C600049F018F4813071F00895833039F08530EF
:101C700061F0089584E390E00C94510C8FE090E0C3
:101C80000E94510C8FE090E0F7CF8FE090E00E942F
:101C90005B0CF8CF0E94550D80936002823049F0B2
:101CA00018F4813071F00895833039F0853061F097
:101CB000089584E392E00C94510C82E190E00E943C
:101CC000510C82E190E0F7CF82E190E00E945B0C42
:101CD000F8CF27982F98089526982E98089525983C
:101CE0002D98089556985E980895279A2F9A0895EA
:101CF000269A2E9A0895259A2D9A0895CF92DF92CA
:101D0000EF92FF92CF936B017C010E94D506C82F02
:101D10000E94720E0E946F0E0E946C0E0E94690E4D
:101D2000C150C73040F4EC2FF0E0E656F24D0C9471
:101D3000362B0E947B0EC701B601CF91FF90EF902A
:101D4000DF90CF9008950E947B0E0E94780EF3CF13
:101D50000E947B0E0E94750EEECF0E947B0E0E94A9
:101D6000780EF8CFCF92DF92EF92FF92CF93DF936E
:101D700000D000D0CDB7DEB70E947E0E6B017C0193
:101D80008091D003882321F08091D103811115C067
:101D9000C092CC03D092CD03E092CE03F092CF0359
:101DA0000E9427080F900F900F900F90DF91CF9116
:101DB000FF90EF90DF90CF900895198282E08A83A0
:101DC000C701B6010E94D5068B838EEF8C8364E039
:101DD000CE0101960E944F06DBCF0F931F9341E087
:101DE00050E060E070E004C0440F551F661F771F8D
:101DF0008A95D2F7CB01BA01609570958095909540
:101E00000091CC031091CD032091CE033091CF03EC
:101E100060237123822393231F910F910C94B20EA0
:101E2000909178038095892380937803282F2770D9
:101E300071F4282F082E000C330B9217130639F07B
:101E40008595859585950E94ED0E109278030895ED
:101E50000F931F9341E050E060E070E004C0440F36
:101E6000551F661F771F8A95D2F78091CC039091FA
:101E7000CD03A091CE03B091CF038A019B01082B23
:101E8000192B2A2B3B2BC901B8011F910F910C94E0
:101E9000B20E209828982198299822982A98239859
:101EA0002B9852985A9853985B983E984698089564
:101EB0008098889A8198899A84988C9A85988D9A26
:101EC00086988E9A87988F9A0895CF93DF9300D043
:101ED0000F92CDB7DEB79091F803943019F589834E
:101EE0007B836A8382E08093E9008FEF9091E80022
:101EF000815095FD06C095ED9A95F1F7000081118E
:101F0000F5CF8091E80085FF0DC050E040E063E030
:101F100070E0CE0101960E94AF048091E8008E77B8
:101F20008093E8000F900F900F90DF91CF9108956C
:101F3000BC0184E00C94650FBC0183E00C94650F38
:101F4000CF93DF93EC018091D5018823B1F180918B
:101F5000990387FF32C060E282E08093E9008FEF4F
:101F60009091E800815095FD06C095ED9A95F1F7A6
:101F700000008111F5CF8091E80085FF1BC08091A2
:101F8000D50170E050E040E0811104C050E040E035
:101F900068E070E0CE010E94AF048091E8008E7787
:101FA0008093E80080E2FE01A6EDB3E001900D927F
:101FB0008A95E1F7DF91CF91089568E081E0CDCF78
:101FC0008FE39CE90197F1F700C0000080916E0259
:101FD000823079F028F4813039F010926E02089541
:101FE000833011F08530C9F781E392E00E94450CFF
:101FF000F4CF81E390E0FACF8FE39CE90197F1F70A
:1020000000C0000080916C02823079F028F48130A9
:1020100039F010926C020895833011F08530C9F7C1
:102020008EE290E00E94450CF4CF8EE292E0FACF6F
:102030008FE39CE90197F1F700C0000080916A02EC
:10204000823079F028F4813039F010926A020895D4
:10205000833011F08530C9F78DE290E00E94450C85
:10206000F4CF8DE292E0FACF8FE39CE90197F1F78C
:1020700000C0000080916802823079F028F481303D
:1020800039F0109268020895833011F08530C9F755
:1020900084E390E00E94450CF4CF84E392E0FACF11
:1020A0008FE39CE90197F1F700C000008091660280
:1020B000823079F028F4813039F010926602089568
:1020C000833011F08530C9F788E390E00E94450C19
:1020D000F4CF88E392E0FACF8FE39CE90197F1F720
:1020E00000C0000080916402823079F028F48130D1
:1020F00039F0109264020895833011F08530C9F7E9
:1021000083E390E00E94450CF4CF83E392E0FACFA2
:102110008FE39CE90197F1F700C000008091620213
:10212000823079F028F4813039F0109262020895FB
:10213000833011F08530C9F78FE090E00E94450CA4
:10214000F4CF84E390E0FACF8FE39CE90197F1F7B5
:1021500000C0000080916002823079F028F4813064
:1021600039F0109260020895833011F08530C9F77C
:1021700082E190E00E94450CF4CF84E392E0FACF34
:10218000EF92FF920F931F93CF93DF930E94720EF3
:102190000E946F0E0E946C0E0E94690E88E8E82E65
:1021A000F12C8FEF90E0F701918380830AE810E033
:1021B000F80191838083CCE8D0E0998388830E94E2
:1021C0007B0EFFEF20E782E0F15020408040E1F7F6
:1021D00000C000000E94780E9FEFE0E7F2E091500F
:1021E000E040F040E1F700C000000E94750E2FEFC4
:1021F00080E792E0215080409040E1F700C000006D
:102200000E946F0EEFEFF0E722E0E150F040204037
:10221000E1F700C000000E946C0E8FEF90E7E2E053
:1022200081509040E040E1F700C000000E94690E3C
:10223000809187038770FFEF8F9FC00111249595D0
:102240008795959587959927F70191838083F80164
:1022500091838083998388830E94720E0E946F0EFF
:102260000E946C0EDF91CF911F910F91FF90EF9024
:102270000C94690ECF9384E090E00E94DF2CC82F6D
:1022800081E290E00E94DF2C982F8C2FCF9108954F
:10229000CF92DF92EF92FF926B017C010E94540972
:1022A000B701A60188E090E0FF90EF90DF90CF901B
:1022B0000C94052D8091B903882319F081508093E7
:1022C000B9036091B5037091B6038091B703909103
:1022D000B8030C9448118091B903833018F48F5FD0
:1022E0008093B9036091B5037091B6038091B703F1
:1022F0009091B8030C944811E5EBF3E083E0808300
:1023000011828FEF82838383148260817181828145
:1023100093810C9448116FEE7EEF90E080E00E9474
:10232000112D60E082E090E00E94F32C60E083E0F9
:1023300090E00E94F32C10927D0310927E03109285
:102340007F031092800360E084E090E00E94F32C11
:1023500060E081E290E00E94F32C60E085E090E094
:102360000E94F32C60E086E090E00E94F32C6FEF77
:1023700087E090E00E94F32C40E050E0BA0188E052
:1023800090E00E94052D60E08DE090E00E94F32C2B
:1023900040E050E0BA0188E190E00E94052D60E045
:1023A00087E190E00E94F32C40E050E0BA018CE11C
:1023B00090E00E94052D60E080E290E00E94F32C06
:1023C00040E050E0BA0188E190E00E94052D1092B3
:1023D0008703109288031092890310928A0384E085
:1023E00080618093870340918703509188036091B7
:1023F000890370918A038FE090E00E94052D40E0F0
:1024000050E0BA0183E190E00C94052D10927B031B
:102410008091D501E0E4F2E0882359F0809199039E
:1024200087FF07C08EE1DF011D928A95E9F70C94C2
:10243000270886E0F8CF1F93CF93DF93CDB7DEB7A1
:10244000AA970FB6F894DEBF0FBECDBF8AEF93E018
:102450002091F100FC012193CF01F4E082309F072D
:10246000B9F78091FB03893009F444C018F5823034
:1024700009F4B7C0833009F46CC0813031F5809124
:10248000FA03813A11F58091E800877F8093E80094
:102490008091FE039091FF03892B41F560E286ED68
:1024A00093E070E00E94EC058091E8008B778093C8
:1024B000E8000BC08B3009F469C008F481C0823495
:1024C00009F4A0C0853409F4BAC08091E80083FF04
:1024D0004BC28091FA039091FB039A3008F044C2FA
:1024E000E92FF0E0EF55F24D0C94362B60E090E0D0
:1024F00080E0D7CF8091FA03813239F78091FE03D3
:102500009091FF03029708F78091E800877F8093FE
:10251000E8008091E80082FF17C09091F30080915D
:10252000F200029729F48091F1008B7F813021F431
:102530008091F1008093D5038091E8008B778093A0
:10254000E8000E94DB04C1CF8091F8038111E1CF44
:10255000BCCF8091FA03813A09F0B7CF8091FE0396
:102560009091FF03892B09F0B0CF8091E800877F1D
:102570008093E8008091E80080FFFCCF8091D50136
:102580008093F1008091E8008E77D9CF8091FA0393
:10259000813209F09ACF8091FE039091FF03892B3D
:1025A00009F093CF8091E800877F8093E8000E9434
:1025B000DB048091FC038093D5010E94061285CF35
:1025C0008091FA03813209F080CF8091E800877F03
:1025D0008093E8000E94DB048091FD038093D40384
:1025E00074CF8091FA03813A09F06FCF8091E800AF
:1025F000877F8093E8008091E80080FFFCCF809186
:10260000D403BECF8091FA03803C09F05ECF809165
:10261000FE039091FF03029739F58091FC0390919E
:10262000FD03892B09F58091E800877F8093E800FE
:102630006BE170E080EC96E00E948D0582CF809186
:10264000FA03803C09F041CF8091FE039091FF0393
:10265000079751F48091E800877F8093E80062EB50
:1026600070E08EE096E0E8CF8091EB00806280938E
:10267000EB002BCF803899F0823809F075C180913A
:10268000FE038F70873008F06FC18093E90080915E
:10269000EB0085FB882780F91092E90006C0809145
:1026A000F6039091F703911182609091E800977F73
:1026B0009093E8008093F1001092F1008091E8007F
:1026C0008E774EC1882309F43CC1823009F04CC199
:1026D0008091FC0381113FC18091FE038F702FEF29
:1026E000280F263008F040C18093E9002091EB00CC
:1026F00020FF31C1933031F48091EB0080628093F0
:10270000EB0029C19091EB0090619093EB0021E0E8
:1027100030E001C0220F8A95EAF72093EA00109278
:10272000EA008091EB008860EACF81111DC1109111
:10273000FC031F778091E3008078812B8093E30076
:102740008091E800877F8093E8000E94DB048091FD
:10275000E80080FFFCCF8091E30080688093E30075
:1027600082E0111183E08093F803FEC0805882302C
:1027700008F0FAC08091FC039091FD038C3D23E0AA
:102780009207A1F583E08A838AE289834FB7F894A0
:10279000DE01139620E03EE051E2E32FF0E050939B
:1027A0005700E49120FF03C0E295EF703F5FEF70A8
:1027B0008E2F90E0EA30C0F0C7968D939D932F5FE7
:1027C000243159F74FBF8091E800877F8093E8005C
:1027D0006AE270E0CE0101960E94EC058091E8006B
:1027E0008B778093E800C0C0C096E7CF4091FE038E
:1027F0005091FF03292F33272330310551F1A0F4E5
:102800002130310509F452C062E570E089E897E0B3
:102810002230310509F0A8C02091E800277F2093DD
:10282000E8000E948D05DACF2132310539F12232DC
:10283000310581F12F30310509F096C0E9E4F8E067
:10284000649170E087E498E06115710509F48CC02B
:10285000E3CF99278130910571F0009731F002970D
:1028600009F082C0EDEEF7E002C0E3E4F8E0649125
:1028700070E0CF01E9CFE1E1F8E0F9CF4115510572
:10288000D1F04130510509F06FC069E070E084EB90
:1028900097E0C2CF4115510599F04130510509F03B
:1028A00063C06DE670E08CED96E0B6CF62E170E05B
:1028B0008BED97E0B1CF69E070E08BE997E0ACCFAA
:1028C00060E470E089E497E0A7CF803809F04CC05D
:1028D0008091E800877F8093E8008091F9038093DE
:1028E000F100ECCE811140C01091FC031230E0F5F4
:1028F0008091E800877F8093E8001093F9030E949D
:10290000DB04112311F084E005C08091E30087FD12
:10291000FACF81E08093F80342E061EC81E00E940D
:10292000FA0442E261EC82E00E94FA0442E361ECC4
:1029300083E00E94FA0442E360EC84E00E94FA041F
:1029400013C08091FC03813079F481E0933009F069
:1029500080E08093F7031092E9008091E800877F80
:102960008093E8000E94DB048091E80083FF0AC0A6
:102970008091E800877F8093E8008091EB0080627F
:102980008093EB00AA960FB6F894DEBF0FBECDBFC2
:10299000DF91CF911F910895CF93C82F873070F5A5
:1029A0008091C9019091CA01892B89F564E670E094
:1029B00080E40E94412A9093CA018093C901892B27
:1029C000D1F464E670E082E10E949D2A9093CA01EE
:1029D0008093C901892B79F481E090E001C0880FD0
:1029E000CA95EAF764E670E080950E949D2A90936C
:1029F000CA018093C901CF910C94F02A8A30B9F0B2
:102A000040F4883071F0893079F0209A2898CF917D
:102A100008958C3091F070F08D30B9F73E9A469859
:102A2000F6CF219A2998F3CF229A2A98F0CF239AA9
:102A30002B98EDCF529A5A98EACF539A5B98E7CFEA
:102A4000CF93DF938091B50380FD0BC0EBE7F2E0FD
:102A50001182108212821382349652E0E73BF5070E
:102A6000B9F7CBE7D2E0FE01928120813181892F35
:102A7000291708F4822F381708F4832F8383381B13
:102A80003183281B2083981B9283349682E0E73B96
:102A9000F80751F70E943B2A64E670E084E80E9440
:102AA000412A64E670E088810E949D2A64E670E015
:102AB00089810E949D2A64E670E08A810E949D2A95
:102AC00064E670E08B810E949D2A249692E0C73BC9
:102AD000D90739F70E94F02A579A3BB13F772BB1BB
:102AE00020684FB7F8948BE792E0FC015191CF0139
:102AF00068E02BB9000000C057FF3BB9550F00003C
:102B000000C000C000C03BB900C06A9591F7F2E078
:102B1000873B9F0751F74FBF8FE594E00197F1F78F
:102B200000C00000DF91CF9108958F929F92AF92E5
:102B3000BF92CF92DF92EF92FF920F931F93CF93AA
:102B4000DF93FC01B280948081E08483C7EBD2E004
:102B50000BE712E08BE4A82E88248394EE24EA94F9
:102B6000F12C2BE4C22ED12C91101DC01B821A8295
:102B700098014A81698188810E94630925960C5FCA
:102B80001F4F83E0C230D80779F7DF91CF911F91B3
:102B90000F91FF90EF90DF90CF90BF90AF909F90FC
:102BA0008F900C9420152B81222309F121502B8327
:102BB0003C818A2D821B311101C0822F9091B80374
:102BC000899FC0011124B6010E940E2B6A83211136
:102BD00004C0332311F01C82AB8222E02B1540F29B
:102BE0008091B60388838091B7038983C1CF0E9407
:102BF000972B823091400CF0BBCF82E08B15C0F454
:102C00000E94972BB7010E94222B888322E02B156C
:102C100090F40E94972B2091B7032695622F70E0C5
:102C20000E94222B280F29831A82AB828C82A0CF8C
:102C30008091B603EACF2091B703F5CFEF92FF92D0
:102C40001F93CF93DF93EC018BE7E82E82E0F82E01
:102C500010E08C8197014091B8036091B703810F18
:102C60000E9463091F5E84E0E80EF11C1F3F89F794
:102C70000E9420159A818C8190FF08C08F5F8C8301
:102C8000DF91CF911F91FF90EF9008958150F7CF82
:102C9000BF92CF92DF92EF92FF920F931F93CF9349
:102CA000DF93FC018281DD24DA9480FD02C0DD2403
:102CB000D3940BE712E0D0E0C0E02FE0B22EF80191
:102CC000118210821282138294E0E92EF12CC12C21
:102CD000809178028C0D80310CF43DC06B2D0E94E8
:102CE000002B892F082E000C990B8C179D0791F44F
:102CF0008091B8038E9DA0018F9D500D1124559594
:102D000047955595479598016091B7038091B60313
:102D10000E946309CD0CF1E0EF1AF108C9F6219683
:102D20000C5F1F4FCF30D10551F60E9420158091C6
:102D3000780291E0D91215C0811111C08EE0809304
:102D40007802DF91CF911F910F91FF90EF90DF906C
:102D5000CF90BF90089587FFC5CF815FC3CF8150CB
:102D6000EECF90E00196BE010E94222BE8CF0F9398
:102D70001F93CF93DF93CBE7D2E0FE011182108245
:102D800012821382349682E0E73BF807B9F710E02D
:102D900000E080917902082E000C990B08171907A2
:102DA0008CF180911601082E000C990B8017910769
:102DB0004CF19E014091B8036091B7038091B60336
:102DC0000E9463090F5F1F4F24960F30110509F70A
:102DD0000E9420158091150190917902980F90938F
:102DE000790220911601280F20931601121614F46F
:102DF0009E301CF0819580931501DF91CF911F913A
:102E00000F910895198218821A821B82DBCF8F924C
:102E10009F92AF92BF92CF92DF92EF92FF920F9369
:102E20001F93CF93DF93EC014C81042F10E09801A6
:102E3000D8010E947B2D9B01AC010E94462D4B01C5
:102E40005C01E0E2F0E0E01BF10BA5E5B0E0AC01D5
:102E50009B010E94462D6B017C019F01DF010E94B6
:102E60003C2B9B01AC010E94512D9B01AC01280D14
:102E7000391D4A1D5B1DC701B6010E94592DF22E56
:102E8000822F90E039E23F15D8F143E0249F900172
:102E9000112435952795122F10959BE7C92E92E0A6
:102EA000D92E00E085E5E82EEF188E2D01FD8F2D3F
:102EB0009601412F6091B7030E9463090F5F54E0B0
:102EC000C50ED11C0F3089F70E9420159C8181E02E
:102ED000992319F0903219F48FEF809317018091A4
:102EE0001701890F8C83DF91CF911F910F91FF9074
:102EF000EF90DF90CF90BF90AF909F908F9008950C
:102F000025E530E0A901481B590BCA019A01220F9F
:102F1000331F280F391F37FFBCCF2F5F3F4FB9CF6B
:102F2000EF92FF920F931F93CF93DF938C01CBE728
:102F3000D2E0F12CE12CF80194816091B7038091EB
:102F4000B603F7E0EF16F104FCF49923F9F09E01C3
:102F50004091B8030E9463092FEFE21AF20A249607
:102F60008FE0E816F10439F70E942015F8018481FA
:102F700090E00196817099278483DF91CF911F9112
:102F80000F91FF90EF900895992309F39E0140E07F
:102F9000E1CF9091B50390FF0DC0EBE7F2E08183A4
:102FA000608342831382349692E0E73BF907B9F7D6
:102FB0000C94201508950F931F93CF93DF9300D0A7
:102FC00000D0CDB7DEB78C0180917A0281110AC0A2
:102FD0009E012F5F3F4F4FEF6FEF0E9463098A8181
:102FE00080937A02F8016481613069F080917A02FD
:102FF00040E0662361F040E0623011F440917A02D3
:1030000080E060E004C060917A0240E080E00E94CD
:10301000C917F801848190E0019663E070E00E9496
:10302000222B84830F900F900F900F90DF91CF9100
:103030001F910F910895CF93DF9300D000D0CDB7AB
:10304000DEB79091B50390FF0AC09E012F5F3F4FFE
:103050000E9463094B8169818A810E94C9170F9080
:103060000F900F900F90DF91CF910895CF93DF9342
:10307000EC01EC81F0E0EF54FE4F4491E5EBF3E01E
:10308000628181810E941B188C818F5F8C83DF910C
:10309000CF910895CF93DF93EC01E5EBF3E043810B
:1030A00062818C810E941B188C818F5F8C83DF91E1
:1030B000CF9108955F926F927F928F929F92AF927D
:1030C000BF92CF92DF92EF92FF920F931F93CF9315
:1030D000DF9300D000D0CDB7DEB7182F762E042FA7
:1030E000622E9091B50390FF29C0E92FE695AE2F8F
:1030F000B0E0AE51BE4F8C918093BA039E7F923068
:1031000089F59E012F5F3F4F812F0E9463094B81FC
:1031100069818A810E94C9171093B6037092B70320
:103120000093B803662051F06091B5037091B60327
:103130008091B7039091B8030E9448110F900F90AF
:103140000F900F90DF91CF911F910F91FF90EF9013
:10315000DF90CF90BF90AF909F908F907F906F90B7
:103160005F900895823019F40091B803D5CF86306E
:1031700019F41091B603D0CF8930D9F3893161F6B3
:10318000E9518E2F8170582EE695F0E0E455FE4F00
:10319000A590B490BB248BE7E82E82E0F82ED12CCA
:1031A000C12C9FE0892E912CC601B4010E940E2BE8
:1031B000812F511013C0860F9701402F672D0E9459
:1031C0006309CA0CDB1C84E0E80EF11C87EBE816EF
:1031D00082E0F80649F70E9420159ECF861BECCFAF
:1031E000E5EBF3E043812CE0421B08F440E021E0F2
:1031F000628181810C945A18E5EBF3E043812CE065
:10320000420F08F44FEF21E0628181810C945A183B
:10321000E5EBF3E062812FEF621B08F460E021E050
:10322000438181810C945A18E5EBF3E062812FEF22
:10323000620F08F46FEF21E0438181810C945A18EA
:10324000E5EBF3E0818121E0438162818C500C94B5
:103250005A18E5EBF3E0818121E043816281845FCC
:103260000C945A1880E290E09093CA018093C901AF
:1032700080915E0281110EC00E943B2A81E0809302
:103280005E022FEF83ED90E3215080409040E1F704
:1032900000C0000064E670E080E40E94412A909340
:1032A000CA018093C901892B09F04EC064E670E021
:1032B00080E00E949D2A9093CA018093C901892BC6
:1032C00009F042C064E670E080E00E949D2A90937D
:1032D000CA018093C901892BB9F564E670E08FE3D8
:1032E0000E949D2A9093CA018093C901892B61F5A0
:1032F0000E94F02A64E670E080E40E94412A9093E4
:10330000CA018093C901892BF9F464E670E08CE06E
:103310000E949D2A9093CA018093C901892BA1F430
:1033200064E670E080E00E949D2A9093CA01809339
:10333000C901892B49F464E670E08FE30E949D2A5D
:103340009093CA018093C9010E94F02A8091C9011B
:103350000895CF93873050F58091C9019091CA01AB
:10336000C0E0892B71F464E670E081E40E94412A98
:103370009093CA018093C901892B31F0C0E00E946B
:10338000F02A8C2FCF91089584E690E00E94CC2AF9
:1033900097FF05C09093CA018093C901EFCFC82F52
:1033A000C0951092CA011092C901E9CFCFB18FB177
:1033B000869586958C73C3708C2BC82FC095E1CFF2
:1033C0001F920F920FB60F9211242F933F934F939A
:1033D0005F936F937F938F939F93AF93BF93CF939D
:1033E000DF93EF93FF93D091E900DF708091EC00C1
:1033F000C82FC17080FDC0E81092E9008091F000F4
:10340000877F8093F00078940E941B121092E9004D
:103410008091F00088608093F000CD2BCF70C09336
:10342000E900FF91EF91DF91CF91BF91AF919F9113
:103430008F917F916F915F914F913F912F910F905D
:103440000FBE0F901F9018951F920F920FB60F92FC
:1034500011242F933F934F935F936F937F938F9399
:103460009F93AF93BF93EF93FF938091E10082FF0F
:1034700009C08091E20082FF05C08091E1008B7F4E
:103480008093E1008091DA0080FF24C08091D80011
:1034900080FF20C08091DA008E7F8093DA008091D7
:1034A000D90080FF9BC080E189BD82E189BD09B45C
:1034B00000FEFDCF81E08093F8038091D30381115A
:1034C00009C00E945F040E942C058091E200846084
:1034D0008093E2008091E10080FF17C08091E200BC
:1034E00080FF13C08091E2008E7F8093E200809184
:1034F000E20080618093E2008091D8008062809336
:10350000D80019BC85E08093F8038091E10084FF26
:1035100029C08091E20084FF25C080E189BD82E15D
:1035200089BD89B5982F917080FFFBCF8091D8001D
:103530008F7D8093D8008091E1008F7E8093E100A1
:103540008091E2008F7E8093E2008091E2008160B2
:103550008093E2008091F903882309F445C084E058
:103560008093F8038091E10083FF27C08091E200FF
:1035700083FF23C08091E100877F8093E10082E098
:103580008093F8031092F9038091E1008E7F80937D
:10359000E1008091E2008E7F8093E2008091E20062
:1035A00080618093E20042E060E080E00E94FA04E3
:1035B0008091F00088608093F000FF91EF91BF91BF
:1035C000AF919F918F917F916F915F914F913F91BB
:1035D0002F910F900FBE0F901F90189519BC10924D
:1035E000F8031092D30376CF8091E30087FD93E038
:1035F0009093F803B7CF78941F921FB61F921124AF
:103600008F939F93AF93BF93809181039091820397
:10361000A0918303B09184030196A11DB11D8093F5
:10362000810390938203A0938303B0938403BF919B
:10363000AF919F918F911F901FBE1F9018952FB72C
:10364000F8948091810390918203A0918303B091BB
:1036500084032FBF08950F931F93CF93DF93C62F3B
:10366000D42F022FFC0182818823A1F060930404EF
:103670000E941F1B9093030480930204C77081E093
:1036800001C0880FCA95EAF7DF91CF911F910F9182
:103690000C94F10780910404681338C080910204EF
:1036A000909103040E9467068C32914078F510E2F5
:1036B0001D0FCD17B9F080E28C0F883040F4C77031
:1036C00081E001C0880FCA95EAF70E94EA07183026
:1036D00048F481E09D2F977001C0880F9A95EAF712
:1036E0000E94F107802F0E946A08802F0E943F08E5
:1036F000183098F4D77081E001C0880FDA95EAF7A6
:10370000DF91CF911F910F910C94EA07C77081E070
:1037100001C0880FCA95EAF7F3CFDF91CF911F91CF
:103720000F9108956091B503669570E04BE050E00D
:103730008AE091E00E94D22C892B19F481E08093D9
:10374000BB030E941F1B9093B0038093AF030895A7
:103750009091B50390FF36C09170811129C092609D
:103760009093B503662351F06091B5037091B60351
:103770008091B7039091B8030E9448116091B503FE
:10378000669570E04BE050E08AE091E00E94D22C18
:10379000892BA9F01092BB0381E08093B20320E053
:1037A0004091B8036091B7038091B6030C945A1806
:1037B0008B3210F09465D4CF880F982BD1CF0E9414
:1037C000921BEACF08958091B5038695815009F444
:1037D0008AE261E00C94A81B8091B50386958F5F07
:1037E0008B3208F081E061E00C94A81B9091B50346
:1037F00090FF07C09695981720F0961710F40C9438
:10380000EC1B61E00C94A81B4F925F926F927F9229
:103810008F929F92AF92BF92CF92DF92EF92FF92E0
:103820000F931F93CF93DF9300D000D00F92CDB7AB
:10383000DEB77C01DC0113968D919C911497892B46
:1038400041F01C911196DC90812F8D218F3F09F062
:103850002BC60F900F900F900F900F90DF91CF918C
:103860001F910F91FF90EF90DF90CF90BF90AF909E
:103870009F908F907F906F905F904F9008950E94DF
:10388000C80B082F682F89819A810E949D07E12F1C
:10389000F0E0B6E0DB9EE00DF11D112424E5029F6F
:1038A000E00DF11D1124EE0FFF1FEF54FD4F0591A8
:1038B0001491D70112968C918111B2C08091D003DE
:1038C0008111EEC00A32BDE51B0709F006C1F70100
:1038D00082818823C9F18091870391E0980F9770C6
:1038E000887F953008F4892B809387038091870324
:1038F0008770FFEF8F9FC00111249595879595954F
:1039000087959927909389008093880090938B00E6
:1039100080938A0090938D0080938C004091870360
:10392000509188036091890370918A038FE090E041
:103930000E94052D6091CC037091CD038091CE0340
:103940009091CF030E947E0EC80197558F3F91053D
:1039500009F008F4E0C0043F3CE5130709F449C14D
:1039600008F0C9C0093D9CE5190709F43EC10A3DAC
:10397000ACE51A0709F449C1083DBCE51B0709F489
:103980001FC1D70112969C91992309F49FC51092EB
:1039900004040230BCE51B0708F40DC20631ECE557
:1039A0001E0738F098012B5F3C452730310508F0A1
:1039B00002C20E943A1190939A03809399030F30A8
:1039C000FCE51F0709F4D8C108F059C108303CE5EF
:1039D000130709F4BBC108F02CC104309CE519079A
:1039E00009F4A8C108F014C10230BCE51B0709F4B2
:1039F0009DC180919903826003301C4509F42BC15D
:103A00006091990310919A0384E090E00E94F32C56
:103A1000612F81E290E00E94F32C0E940612D6C032
:103A20008091C8018F3F09F449CF68E1C62E61E05B
:103A3000D62EB12CA12C992493948091C801082EE4
:103A4000000C990B8A159B050CF438CFF601868182
:103A50008823F9F0818592858017910739F4809148
:103A60000603909107038017910799F0D6011F96DE
:103A70009C921F971C961C930E931B9751968C91AA
:103A8000811103C0C6010E94E408C60106960E9487
:103A90000509BFEFAB1ABB0AE6E1CE0ED11CCDCFB4
:103AA0008091D103882309F40DCF1982D701129692
:103AB0008C91811110C082E18A83D7018C918B8314
:103AC00011968C918C838EEF8D8365E0CE010196EB
:103AD0000E944F06F7CE81E1EFCF0C322DE51207A1
:103AE00009F032CFD70112968C91882309F46EC069
:103AF00061E081E09BC1063FECE51E0709F481C04F
:103B000008F47BC0073F2CE5120709F03ACF27E203
:103B100045EE66EE58C02091C801022E000C330B12
:103B20002817390714F48093C801F701228136E180
:103B3000389F5001399FB00C1124C501885E9E4FFB
:103B40006C01DC0150962C935097928116968C91C3
:103B50001697992339F11A961C930E9319978F5F34
:103B600016968C930E941F1BF6019687858780917D
:103B70007C03878380917A0390917B03892B8087D4
:103B80000190F081E02D309741F0D60154966D916F
:103B90007C91C501825E9E4F0995109307030093A7
:103BA0000603EFCE882309F4D6CEF6018189882357
:103BB00009F4D1CEC501825E9E4F0E940509E1CE77
:103BC00026E241EE61EEC7010E942B1B8091780333
:103BD000877009F43ECED70112968C91882309F4A0
:103BE00038CE82E00E94100F34CE27E245EE65EE1B
:103BF000EACF26E241EE60EEE6CF27E245EE64EE44
:103C0000E2CF26E241EE62EEDECF28E241E0EFCFE6
:103C10008091990380610630FCE51F07E1F08091F7
:103C20009903886007301C45B0F080919903806249
:103C300012C00B303CE5130709F496C078F4093044
:103C40009CE5190709F486C0809199038C600A30BD
:103C50001C4509F0D5CE80939903D2CE809199036B
:103C60008B7F0D30BCE51B07B1F3809199038D7FED
:103C70000E301C4580F380919903877FECCF0B3F7A
:103C8000FCE51F0709F45AC048F502313CE513076B
:103C900009F47AC060F400319CE5190709F470C09A
:103CA000809199038F7B01311C45A9F2A9CE043183
:103CB000BCE51B0709F476C008F46CC005311C454F
:103CC00009F09ECE8091990382FB992790F921E01B
:103CD000922790FB82F990FB83F9BDCF0E3F2CE534
:103CE000120709F445C070F40C3F8CE5180751F138
:103CF00080919A038E7F0D3F1C4509F081CE809301
:103D00009A037ECE0115ADE51A0709F447C040F1CC
:103D100001301D4509F074CE80919A03982F90953B
:103D200091708E7F892B90FB81F9E9CF8091990367
:103D3000816091CF8091990384608DCF80919A03A7
:103D40008160DDCF80919A038260D9CF8091990301
:103D5000806481CF0E9406128091990380687BCF96
:103D600080919A038360CBCF809199038E7F73CF2C
:103D700080919A038D7FC3CF809199038F7E6BCF03
:103D8000809199038F7D67CF0E94061280919903DD
:103D90008F7761CF80919903837F5DCF80919A0364
:103DA0008C7FADCF0E94061290919903892F97FBCB
:103DB00087F9805850CF80917B030631FCE51F07BF
:103DC00009F092C38A7A91E009F490E09093080395
:103DD00069E2811165E38EE392E00E94A0060E94F1
:103DE0002F07F4CE8091B50380FF1BC08E7F809398
:103DF000B5036091B5037091B6038091B7039091BC
:103E0000B8030E9448111092BB032FEF30E782E005
:103E1000215030408040E1F700C000000E94201592
:103E2000D5CE81608093B50361E086950E94A81B82
:103E3000CDCE43EE5BE16CEE7BE10E944F09C6CE36
:103E40004CEE5BE163EE7BE1F8CF40E259E169E2E1
:103E500079E1F3CF49E259E160E279E1EECF48E060
:103E600059E164E179E1E9CF44E159E168E079E1C0
:103E7000E4CF40EF58E16CEF78E1DFCF4CEF58E151
:103E800060EF78E1DACF4AE551E16BE671E1D5CF39
:103E90004BE651E16AE571E1D0CF65E082E00E9436
:103EA000F61B94CE68E086E0FACF6EE089E0F7CFAB
:103EB00064E18FE0F4CF67E185E1F1CF61E088E173
:103EC000B5CF62E289E1EBCF61E083E2AFCF0F3D96
:103ED000ACE51A0709F446C00930BDE51B0709F433
:103EE00044C001151C4509F047C00E940612FFEFAF
:103EF00024E33CE0F15020403040E1F700C00000F6
:103F0000F89481E08093E00080E28093D8001092E2
:103F1000C9008FE19EE40197F1F700C000001DBACF
:103F2000109268001CBC10BE1FBA10927A0010924A
:103F30006E0010926F001092710010927200109239
:103F4000C9001092BC0014B817B81AB81DB810BA3E
:103F50001092BC0015B818B81BB81EB811BA0C9452
:103F6000003F34CE0E948B1131CE8091D20391E07C
:103F700089278093D2032ACEF701008111819923EA
:103F800009F440C0C8010E94C80BD82E682FC80190
:103F90000E949D07B8018D2D0E943D0A8C01882E3C
:103FA000D7011596AC901597A2944FE0A4221296D3
:103FB000DC90D11010927A0380917803877099F089
:103FC000DD2089F0812F807F803421F080E2800F16
:103FD000883048F082E00E94100F8091780387704B
:103FE000CC24C3948111C12CB12EB2943FE0B322F2
:103FF000BBE0BB1508F43DC0EB2DF0E0E555F24DFC
:104000000C94362BC8010E947407D82EC3CFE12F21
:10401000EF70AE2E107F19F0A29420EFA222DD20C7
:10402000C9F0AA2069F080E2800F883010F081107A
:104030000BC080917B03A82AA0927B030E942F07CC
:10404000802F0E946A0815C080917A03A82AA09246
:104050007A03F4CF802F0E943F08AA2051F0005E1F
:10406000083010F0811043C08A2D0E9428070E945A
:104070002F07AB2DA850BB0B149710F40E94D80843
:10408000CC20A9F08091780380FD11C0F701128245
:104090008595859585950E94280FC7010E94041C6F
:1040A000809178038595859585950E94ED0E85E034
:1040B000F701DE01119601900D928A95E1F7898151
:1040C0009A810E9474079A81E981F0E026E0929F2C
:1040D000E00DF11D112434E5839FE00DF11D112445
:1040E000EE0FFF1FEF54FD4F85919491B2CBA0943A
:1040F00080917A03A822A0927A03B9CFF12FFF70A2
:104100009F2E107F103219F0929490EF9922882000
:1041100041F021E0821631F1DD2079F1AA2041F150
:104120008FCFDD2091F090917C03892D892BA110F8
:1041300003C00E94F1079DCF31E0A312FACF981778
:1041400009F497CF80937C0394CFA11006C00E94FE
:104150002207892D0E94EA078CCF81E0A81609F476
:1041600088CFF5CFDD2031F091E09A1508F481CFAA
:10417000892DDFCFA1107DCFECCFAA2051F3A9E389
:104180008A1209C0BFEFE7EEF3E0B150E040F04023
:10419000E1F700C00000802F0E943F086ACF812F06
:1041A00086958695837061F0813009F062CFC801F1
:1041B0009370D11002C090E080E00E94FB0759CFBD
:1041C000C8019370D11002C090E080E00E941108F5
:1041D00050CF812F837009F066C0D1104ACF802F55
:1041E000829586958770880F880F602F6F70462E96
:1041F000512C712C612C082E04C0440C551C661CDB
:10420000771C0A94D2F740E050E0BA0104FF0FC0D7
:104210004FE050E060E070E004C0440F551F661F9F
:10422000771F8A95D2F74095509560957095812FAC
:10423000869586958370823019F1D8F400917D03BC
:1042400010917E0320917F0330918003813069F0CB
:104250004429552966297729CB01BA0160237123A6
:10426000822393230E94350804CF402A512A622AD0
:10427000732ACB01BA016429752986299729F2CFBF
:10428000442955296629772900917D0310917E03E1
:1042900020917F0330918003CB01BA016027712701
:1042A00082279327DFCF8695DD2011F0812F817043
:1042B000882309F4DECE802F829586958770880F3B
:1042C000880F602F6F70462E512C712C612C082E98
:1042D00004C0440C551C661C771C0A94D2F740E0BD
:1042E00050E0BA0104FF0FC04FE050E060E070E022
:1042F00004C0440F551F661F771F8A95D2F740955B
:10430000509560957095812F869586958370823043
:1043100019F1D8F40091CC031091CD032091CE0374
:104320003091CF03813069F04429552966297729D6
:10433000CB01BA0160237123822393230E94B20E22
:1043400098CE402A512A622A732ACB01BA016429E5
:10435000752986299729F2CF442955296629772975
:104360000091CC031091CD032091CE033091CF0367
:10437000CB01BA016027712782279327DFCF1F70F7
:10438000DD2029F0812F0E94280F802FD2CE802F90
:104390000E94EA07812F0E94ED0E6BCE802F22EF44
:1043A000821609F44EC0281578F030EF831619F103
:1043B00091EF891609F43DC0DD2009F465C0A11014
:1043C0003FCE812F8F713AC0A3EF8A1609F43EC009
:1043D000B4EF8B12F1CFDD2009F44BC01F71812F98
:1043E0000E94280FF8E01F9FC00111248360809372
:1043F0007803812F23C0DD20B9F0A1103ACE1F71C0
:1044000061E070E080E090E004C0660F771F881FD5
:10441000991F1A95D2F70091CC031091CD032091EA
:10442000CE033091CF03A6CFE1E0EA1508F421CE08
:10443000E6CF812F8F71DD2009F4ADCF0E94280FC8
:1044400018CE812F8F71DD20C9F3A5CF60E070E019
:10445000CB01DD2009F472CF1F7161E070E080E0D4
:1044600090E004C0660F771F881F991F1A95D2F736
:1044700065CF81E00E94100F21E02A1508F0F9CDE8
:1044800082E00E94100FF5CDAA2059F0893309F07F
:1044900082CE3FEF87EE93E0315080409040E1F7CD
:1044A00078CE812F8F7177CF85E0F701DE011196ED
:1044B00001900D928A95E1F7F701228189819A8115
:1044C0002111DDC90E947407082FE1C906311C457E
:1044D00009F052CD8091080369E2811165E38EE312
:1044E00092E00E9476067BCC8272F801E35CFC4588
:1044F000E431F10508F0EBCCE954F24D0C94362B85
:104500001F93CF93DF9380910E03807FA9F4809156
:104510000B03882389F080914003D0910F036091B1
:10452000090370910A03A0910C03B0910D03C62FEB
:10453000C72316E0D81304C0DF91CF911F910895CF
:1045400090E0109711F0CF3F19F401968770F2CFE9
:10455000189F9001199F300D1124F901E05FFC4F65
:1045600041814713F2CF40814613EFCF4281411181
:10457000ECCF438154814A1B5B0B4C32514028F7EE
:1045800080910E038F70806180930E03F901EB5EC2
:10459000FC4F80818F708061808389E093E00E946E
:1045A000041CDF91CF911F910C94CB07AF92BF9267
:1045B000CF92DF92EF92FF920F931F93CF93DF93EF
:1045C000CDB7DEB761970FB6F894DEBF0FBECDBF93
:1045D0008C0185E0F801DE011D9601900D928A950F
:1045E000E1F7F80180819181E28029E0A22E23E0A9
:1045F000B22E60910C0370910D036115710509F4E1
:104600003FC13091090340910A03232F24232F3FF8
:1046100009F436C1C380D480F0900B03F601E61B89
:10462000F70BBF01FF2009F4FBC020910E03522FAE
:10463000507F6C32714008F0BBC0511178C0FE2C25
:10464000491321C038131FC0E1101DC02F70206115
:1046500020930E03C5010E94041C80910E03F801F3
:1046600085838F2D61960FB6F894DEBF0FBECDBF48
:10467000DF91CF911F910F91FF90EF90DF90CF903E
:10468000BF90AF900895CD2829F0282F29232F3FE0
:1046900009F014C120E0F22FF170DF2E20FF3DC0A1
:1046A0002091400340910F0356E0241315C08D87DD
:1046B0009E878D859E850E940A0C292F22952F703A
:1046C0002230F8F0243020F59F70F9F0F801958140
:1046D000907FD9F4D12C1FC030E0529FF001539F3E
:1046E000F00D1124E05FFC4F6181961306C06081DC
:1046F000861303C06281E61210C02F5F3F4F277000
:10470000D4CF9F7011F0882329F3805E883010F396
:10471000C8010E94041CFD2CA4CFEE2009F4A1CFF7
:1047200080910E03816080930E03F12C9ACF491380
:1047300012C0381310C0E1100EC0F8012583C80163
:104740000E94041C86E0F801A9E0B3E001900D92FC
:104750008A95E1F786CF8D879E878D859E850E94FD
:10476000140C882309F1EE20F9F080910E038032B9
:1047700070F02091090330910A0338872F8319863E
:10478000DB86CA868C87CE0107960E94041C86E0D1
:10479000F801A9E0B3E001900D928A95E1F70E943B
:1047A0008022FF24F3945DCFC8010E94041CF9CF3E
:1047B00051110AC089E093E00E94041C86E0F501D3
:1047C00011928A95E9F7B1CF49130FC038130DC084
:1047D000E1100BC0F8012583C8010E94041C86E08B
:1047E000F50111928A95E9F73CCF8D879E878D85DB
:1047F0009E850E94140C8823B9F2EE20A9F28091C4
:104800000E03803220F22091090330910A033A838B
:1048100029831B82DD82CC828E83CE010196B5CFA7
:104820006C327140E0F6FE2CEE2009F4BDCF491346
:1048300016C0381314C080910E0380FD83CF982FCB
:10484000907F09F47FCFF8018583903F09F477CFFB
:10485000982F907F905F8F70892B858370CF8D8785
:104860009E878D859E850E94140C811190CF80912A
:104870000E03816080930E03C8010E94041CF1CED8
:10488000EE2009F491CF8D879E878D859E850E94AD
:10489000140CF82E882309F487CF86E0F801A9E0EC
:1048A000B3E001900D928A95E1F780910903909110
:1048B0000A030E940A0C0E948022D3CE21E02E25FA
:1048C000EACE1F93CF93DF93CDB7DEB767970FB6CE
:1048D000F894DEBF0FBECDBF4B8B5C8B6D8B7E8B98
:1048E0008F8B1A8A198A85E0FE017396DE011D9668
:1048F00001900D928A95E1F786E0FE013D96DE017A
:10490000179601900D928A95E1F7CE0107960E94C5
:10491000D622811112C086E0FE013796DE01119683
:1049200001900D928A95E1F78A859B85892B29F064
:104930008F81988589238F3FB1F516E080914003E0
:1049400090910F0389131DC067960FB6F894DEBFD0
:104950000FBECDBFDF91CF911F91089596E0929F3A
:10496000D001939FB00D1124A05FBC4FFE01319682
:1049700001900D929A95E1F780930F030E94CB0767
:10498000DCCF819FC0011124805F9C4F0E94D62202
:104990008823D1F28091400390E001968770992797
:1049A00080934003CBCF20910F0330E0C9010196E3
:1049B00087709927409140034817190679F60E949D
:1049C000061210920F031092400386E0E9E0F3E034
:1049D000DF011D928A95E9F7B0CF8F929F92BF9227
:1049E000CF92DF92EF92FF920F931F93CF93DF93BB
:1049F0008091C9019091CA01892B91F080916F0239
:104A00008F5F80936F0281110BC00E94321990E07A
:104A10009093CA018093C901892B11F40E94C010A0
:104A2000EBE88E2EE3E09E2E740110E000E077E0CC
:104A3000C72EC00E802F0E94CC148C2D0E94CC1447
:104A4000802F0E94A919E70199917E01D12C891725
:104A500029F0FE0131978083DD24D3948C2D0E94B0
:104A6000A919F7019681891709F47AC0868381E034
:104A70008D29182B0E94490F0F5F0730C1F60E9445
:104A80001F1B609171027091720290937202809369
:104A900071022091700230E0261B370B820F931FAA
:104AA0006BEF70E00E940E2BE82E392F082F8093B9
:104AB0007002F0907402FF2009F4E5C010927402B5
:104AC000E0918503F0918603AF01425F5F4F20E0E4
:104AD0006BEFB62E6BEF70E0A191AB3F99F0CA2E51
:104AE000D12C8E2D932F0A17E8F18C199D09092ED0
:104AF000000CAA0BBB0B4E97A105B105C8F1DF0155
:104B00001197BC924E175F0739F720937402111169
:104B100002C02111BAC010927302A0918503B09116
:104B2000860390917402E1EAF3E080E03191E401C0
:104B300029914E01321751F03C913B3FD9F40C932F
:104B4000AF0141505109EA01288391E01196D3E069
:104B5000EF3AFD0759F7909374028093730299C05E
:104B600080E086CFDB01AC19BD098A0F9B1FBFCF48
:104B70002F2DC8CF81E0EACFF29EF001F39EF00D19
:104B80001124E85EFE4FC288D388C114D10421F4F9
:104B90009CE2C92EDD24D394F29EE001F39ED00D59
:104BA0001124C85EDE4F8E818823B9F08D859E85E5
:104BB0000E946706C816D90680F40F9D6001112473
:104BC0008989811105C0C601885E9E4F0E94E40854
:104BD000C601825E9E4F0E9405090F5F202F30E0C4
:104BE0008091C801082E000C990B8217930724F6B8
:104BF00055C000E086E1F82EF1CF009789F40E94BD
:104C00006F0E0E946C0E0E94690EC0917502CC233B
:104C1000B9F10E946C0E81E0C827C093750203C0F1
:104C20009170892B91F38091760290917702813077
:104C3000984780F01092D2036091CC037091CD031D
:104C40008091CE039091CF030E947E0E1092770246
:104C5000109276028091760290917702019690935D
:104C6000770280937602812FDF91CF911F910F9170
:104C7000FF90EF90DF90CF90BF909F908F9008951E
:104C80000E94780EC8CF111146CF80917302811116
:104C900042CF8091C8018F3F09F0ABCF809176025F
:104CA000909177022091D2032111A7CF892BD9F2BD
:104CB00010927702109276026091CC037091CD032E
:104CC0008091CE039091CF030E947E0ECCCFCDB7C2
:104CD000DEB7C955D1090FB6F894DEBF0FBECDBF00
:104CE00084B7877F84BF0FB6F894A8958091600041
:104CF000886180936000109260000FBE80E890E0B1
:104D00000FB6F89480936100909361000FBE85B751
:104D1000806885BF85B7806885BF0E945F040E9458
:104D20002C058091E20084608093E2007894809169
:104D3000F8038823A1F01091E9001F709091EC0016
:104D4000892F817090FD80E8182B1092E9008091E6
:104D5000E80083FD0E941B121F701093E90082E09F
:104D600084BD93E095BD9AEF97BD80936E000E943D
:104D7000321990E09093CA018093C9010E94490FB3
:104D80000E94580FEBE8F3E0A1EAB3E011921D9204
:104D900023E0E939F207D1F78EE090E00E94A72BDB
:104DA0008093850390938603FC010E962BEF21934D
:104DB0008E179F07E1F790E080E00E94ED2C8F3E78
:104DC0009E4F11F00E948B1189EA8093800089E048
:104DD0008093810024982C983F988AB18F7C8AB95F
:104DE0006E98479A8BB180638BB9769A8FE090E08A
:104DF0000E94E72C60938703709388038093890354
:104E000090938A036770FFEF6F9FB001112475952F
:104E100067957595679577277093890060938800EB
:104E200070938B0060938A0070938D0060938C0068
:104E30000E94C01090E080E00E94ED2C8F3E9E4FBB
:104E400011F00E948B1182E090E00E94DF2C809391
:104E5000BD030E943A1190939A038093990383E0D3
:104E600090E00E94DF2C682F70E090E080E00E94CC
:104E700035086091CC037091CD038091CE03909161
:104E8000CF030E947E0E80919B03811136C090E07B
:104E900080E00E94ED2C8F3E9E4F21F00E948B11EE
:104EA0000E947C1188E090E00E94E72C6093B5039B
:104EB0007093B6038093B7039093B8036E7F71F439
:104EC0000E947C1188E090E00E94E72C6093B5037B
:104ED0007093B6038093B7039093B8030E9454096C
:104EE0001092BB038091B50380FF04C060E08695FB
:104EF0000E94A81B81E080939B036091CC0370917A
:104F0000CD038091CE039091CF030E947E0E8BEC57
:104F100091E090939D0380939C03B8E1EB2EF12CDC
:104F200081EA93E01EE0B12EB80E01E4C02ED12C30
:104F3000CC0EDD1EF2E0CF0ED11C8091F80385303F
:104F400001F5A0E49A2E8824839400E112E1809177
:104F5000F803853009F4E0C00E9406120E94D808C8
:104F60001092A00380919F03882349F08091B5039C
:104F700081608093B50360E086950E94A81B0E9423
:104F8000921B0E94ED24EEEBF3E0A1EAB3E010E007
:104F900000E0302F8D912191281709F425C190E070
:104FA000992493942827422F492109F418C1619626
:104FB0009FAF619762963FAF6297892191E009F4B4
:104FC00090E063969FAF63970E941F1B8160782FCC
:104FD00065969FAF8EAF659761964FAD619762966C
:104FE0005FAD629763966FAD639765968FAD65977A
:104FF0000E946124F801E254FC4F8081982690823F
:105000008091BB03882309F441C08091BA03E091E9
:10501000B503E695E81BE093B103823009F00BC1BC
:10502000F0E0E65FF94FE4910E2F10E0F6E38F2EEB
:10503000F8E19F2E8091B203882389F01092B20389
:105040000E941F1B980120953095820F931F90930B
:10505000B0038093AF031092B4031092B303809116
:10506000AF039091B0030E9467068017910770F01C
:10507000E091AF03F091B0030E0F1F1F1093B00328
:105080000093AF038FEA93E0F40109950E94D808DA
:105090009091BC03891721F00E94D8088093BC032B
:1050A0008091F803843009F048CF8093E900809123
:1050B000E80082FF42CF8091E80090E085FF06C0C3
:1050C0000E947E04882309F422C191E08091E800C7
:1050D0008B778093E800992309F42FCF1981111160
:1050E00032C18091D203882309F448C11092D203BF
:1050F00081E08093D10322961FAE229723961FAEA4
:1051000023978EEF24968FAF249763E0CE018F5BB9
:105110009F4F0E944F0611CF8091F803843009F40D
:105120003DC010929E030FB6F894A895E0926000DF
:105130000FBE909260001092BB038091A00381117A
:1051400016C08092A0038091B503982F9170909320
:105150009F038E7F8093B5032FEF80E792E021506D
:1051600080409040E1F700C000000E94201583B706
:10517000817F846083BF83B7816083BF7894889583
:1051800083B78E7F83BF0FB6F894A8958091600097
:10519000886180936000109260000FBE8091F703D9
:1051A000882309F4D4CE0E94321990E09093CA016A
:1051B0008093C9010E94490F0E94580FE1EAF3E071
:1051C000119223E0EF3AF207D9F70E94ED24E1EAC9
:1051D000F3E08191811112C1BE12FBCFB8CE9F5F67
:1051E000990C963009F0DFCE0F5F1F4F0E3011057E
:1051F00009F0CFCE8FEF66968FAF669767968FAF29
:10520000679768961FAE68970E941F1B8160782F72
:105210006A969FAF8EAF6A9766964FAD6697679610
:105220005FAD679768966FAD68976A968FAD6A971E
:105230000E946124E5CE863059F4F0E0E95FF94F31
:10524000E4910E2F10E0EAE48E2EE8E19E2EF2CEDD
:10525000893061F4E695F0E0EC5FF94FE4910E2FB0
:1052600010E07EE1872E76E1972EE4CE8F3061F458
:10527000E695F0E0EF5FF94FE4910E2F10E068E45F
:10528000862E66E1962ED6CE853159F4F0E0E250B6
:10529000FA4FE4910E2F10E057EB852E56E1952E34
:1052A000C9CE08E210E027E0822E27E1922E883155
:1052B00009F4C0CE833249F4ECEFF5E00591149186
:1052C0004BED842E47E1942EB5CE04EF11E090E92A
:1052D000892E97E1992E843209F4ACCE853281F47F
:1052E0008E2F63E00E94F42AE92FF0E0E750FA4F96
:1052F000E4910E2F10E035E9832E35E1932E9ACEFE
:1053000000ED17E08AE4882E86E0982E93CE00E424
:1053100010E0CE0101964C018091E80085FD0AC0A5
:105320008091E8008B778093E8000E947E048823B8
:1053300099F3CBCE8091F100F40181934F0101509C
:10534000110951F7C2CE1130C9F422961FAE22972F
:1053500023961FAF23978CE0E6EDF1E0D601019094
:105360000D928A95E1F78EEF60968FAF60976FE0B0
:10537000CE018F5B9F4F0E944F06DFCD8091D103FE
:105380008823D1F1123041F01330F9F081E02296F8
:105390008FAF229761E0BACE6091CC037091CD03BC
:1053A0008091CE039091CF030E94D50622961FAE26
:1053B000229723961FAF239724968FAF24978EEFC3
:1053C00025968FAF259764E0A1CE8A81813041F088
:1053D000882341F08230D1F681E08093D00302C06F
:1053E0001092D00322961FAE229783E023968FAFB0
:1053F00023978091D003E0CF8FEFC9CF09BD19BDAE
:1054000009B400FEFDCF8091D8008F7D8093D80035
:105410008091E00082608093E0008091E00081FD57
:10542000FCCF0E94061293CD1F921FB61F9211242B
:105430008F939F93AF93BF9380919E03811113C06D
:105440008091810390918203A0918303B0918403A2
:105450004196A11DB11D8093810390938203A09377
:105460008303B0938403BF91AF919F918F911F905D
:105470001FBE1F9018951092B9008CE08093B80061
:105480000895EF92FF920F931F93CF93DF93182FFE
:10549000EB011092BC0084EA8093BC000E941F1BA9
:1054A0007C018091BC0087FF27C08091B900887F74
:1054B000883029F08091B900887F8031D9F5109328
:1054C000BB0084E88093BC000E941F1B8C0180916C
:1054D000BC0087FF24C02091B900287F90E080E0C5
:1054E0002831B1F081E090E0203411F490E080E0C8
:1054F0009195819591090CC0CF3FDC0791F20E94F4
:105500001F1B8E199F098C179D0758F28EEF9FEF76
:10551000DF91CF911F910F91FF90EF900895CF3FB2
:10552000DC07A9F20E941F1B801B910B8C179D07A3
:1055300070F2ECCF8FEF9FEFEBCF0F931F93CF93D2
:10554000DF93EB018093BB0084E88093BC000E9452
:105550001F1B8C018091BC0087FF11C02091B900F6
:10556000287F81E090E0283211F490E080E091956E
:1055700081959109DF91CF911F910F910895CF3FB0
:10558000DC0741F30E941F1B801B910B8C179D07AA
:1055900008F38EEF9FEFEECF0F931F93CF93DF9320
:1055A000EC0184E88093BC000E941F1B8C01809159
:1055B000BC0087FF08C08091BB0090E0DF91CF91D5
:1055C0001F910F910895CF3FDC0789F30E941F1BA5
:1055D000801B910B8C179D0750F38EEF9FEFEECF42
:1055E00084E98093BC000895991B79E004C0991F59
:1055F000961708F0961B881F7A95C9F7809508952D
:1056000087FB082E062687FD819567FD61950E9420
:10561000F42A0EF4919507FC81950895AA1BBB1BF3
:1056200051E107C0AA1FBB1FA617B70710F0A61BA2
:10563000B70B881F991F5A95A9F780959095BC01C3
:10564000CD01089597FB072E16F4009407D077FD3F
:1056500009D00E940E2B07FC05D03EF49095819551
:105660009F4F0895709561957F4F0895EE0FFF1F2E
:105670000590F491E02D09940E947B2D332312F4C0
:105680008A1B9B0B0C94462B0E947B2DB7FF089521
:10569000821B930B08958F929F92AF92BF92CF92ED
:1056A000DF92EF92FF92CF93DF93EC0168817981D3
:1056B0008A819B81611571058105910521F464E260
:1056C00079ED8BE597E02DE133EF41E050E00E946A
:1056D000272D49015A019B01AC01A7EAB1E40E94C0
:1056E000462D6B017C01ACEEB4EFA50194010E9444
:1056F000542DDC01CB018C0D9D1DAE1DBF1DB7FFD0
:1057000003C00197A109B04888839983AA83BB830A
:105710009F77DF91CF91FF90EF90DF90CF90BF9078
:10572000AF909F908F9008950E944B2B089580E03A
:1057300091E00E944B2B0895B0E0A0E0809300011F
:1057400090930101A0930201B093030108950F9378
:105750001F93CF93DF938230910510F482E090E0A5
:10576000E0910704F091080430E020E0B0E0A0E010
:10577000309799F42115310509F447C0281B390BDE
:1057800024303105C0F58A819B816115710571F165
:10579000FB0193838283FE0111C04081518102810C
:1057A000138148175907F8F04817590799F41097CB
:1057B00061F012960C93129713961C933296CF01B8
:1057C000DF91CF911F910F910895009307041093DB
:1057D0000804F4CF2115310519F04217530718F4C6
:1057E0009A01BD01EF01DF01F801C2CF90930804D7
:1057F00080930704D0CFFE01E20FF31F81939193B2
:105800002250310939832883DACF20910504309161
:105810000604232B41F420910601309107013093B7
:1058200006042093050420910401309105012115FF
:10583000310541F42DB73EB740910801509109015F
:10584000241B350B40910504509106044217530761
:1058500008F0B5CF241B350B2817390708F4AFCF54
:10586000BC016E5F7F4F2617370708F4A8CF640F7F
:10587000751F7093060460930504FA018193919358
:105880009ECFCF93DF930097E9F0FC01329713820C
:105890001282C0910704D0910804DE0130E020E0BC
:1058A0002097A1F420813181820F931F209105045C
:1058B000309106042817390709F067C0F0930604F1
:1058C000E0930504DF91CF910895DA01AE17BF0789
:1058D00008F040C012964D915C9113979D014115BF
:1058E000510599F7D9011396FC93EE9312974D91B8
:1058F0005D91A40FB51FEA17FB0779F480819181B0
:105900000296840F951FD90111969C938E938281E4
:10591000938113969C938E931297B0E0A0E08A81B6
:105920009B810097B9F5FE0181919191E80FF91FD4
:1059300080910504909106048E179F0719F6109721
:1059400061F51092080410920704D0930604C093E6
:105950000504B8CFB383A28340815181840F951F82
:10596000A817B90771F44E5F5F4F8D919C91119705
:10597000480F591F5183408312968D919C919383B8
:1059800082832115310509F0ADCFF0930804E0932F
:10599000070498CFDE01EC01C2CF13961C921E9231
:1059A0001297D3CFFC014150504030F001900616C1
:1059B000D1F73197CF010895882799270895F9994C
:1059C000FECF92BD81BDF89A992780B50895A6E1D2
:1059D000B0E044E050E00C94192DA8E1B0E042E0C2
:1059E00050E00C94192D262FF999FECF92BD81BD60
:1059F000F89A019700B4021639F01FBA20BD0FB60D
:105A0000F894FA9AF99A0FBE08950396272F0E94E8
:105A1000F42C0E94F32C252F0E94F42C242F0C949C
:105A2000F42C0196272F0E94F42C0C94F32CDC010B
:105A3000CB01FC01F999FECF06C0F2BDE1BDF89A99
:105A4000319600B40D9241505040B8F70895052E9C
:105A500097FB1EF400940E943E2D57FD07D00E9434
:105A6000592D07FC03D04EF40C943E2D50954095D3
:105A7000309521953F4F4F4F5F4F089590958095FA
:105A8000709561957F4F8F4F9F4F08950E947B2D9A
:105A9000A59F900DB49F900DA49F800D911D112482
:105AA0000895B7FF0C94462D0E94462D821B930B40
:105AB0000895A1E21A2EAA1BBB1BFD010DC0AA1F4F
:105AC000BB1FEE1FFF1FA217B307E407F50720F067
:105AD000A21BB30BE40BF50B661F771F881F991FE2
